:020000040800F2
:1000000000000120AD1B0008A1030008A3030008A5
:10001000A5030008A7030008A903000800000000CA
:10002000000000000000000000000000AB0300081A
:10003000AD03000800000000AF030008B103000892
:10004000F51B0008F51B0008F51B0008F51B000850
:10005000F51B0008F51B0008F51B0008F51B000840
:10006000F51B0008F51B0008F51B0008F51B000830
:10007000F51B0008F51B0008F51B0008F51B000820
:10008000F51B0008F51B0008F51B0008F51B000810
:10009000F51B0008F51B0008F51B0008F51B000800
:1000A000F51B0008F51B0008F51B0008F51B0008F0
:1000B000F51B0008F51B0008F51B0008F51B0008E0
:1000C000F51B0008F51B0008F51B0008F51B0008D0
:1000D000F51B0008B9030008F51B0008F51B000814
:1000E000F51B0008F51B0008F51B0008F51B0008B0
:1000F000F51B0008F51B0008F51B0008F51B0008A0
:10010000F51B0008F51B0008F51B0008F51B00088F
:10011000F51B0008F51B0008F51B0008F51B00087F
:10012000F51B0008F51B0008F51B0008F51B00086F
:1001300000000000000000000000000000000000BF
:1001400000000000000000000000000000000000AF
:10015000000000000000000000000000000000009F
:10016000000000000000000000000000000000008F
:10017000000000000000000000000000000000007F
:10018000000000000000000000000000000000006F
:10019000000000000000000000000000000000005F
:1001A000000000000000000000000000000000004F
:1001B000000000000000000000000000000000003F
:1001C000000000000000000000000000000000002F
:1001D000000000000000000000000000000000001F
:0401E0005FF8E0F1F3
:1001E40010B5054C237833B9044B13B10448AFF36D
:1001F40000800123237010BD0C00002000000000CB
:10020400501C000808B5034B1BB103490348AFF366
:10021400008008BD0000000010000020501C0008F1
:1002240072B6FEE700B591B02822002106A801F0BD
:1002340005FD002301930293039304930593012284
:1002440006924FF4803307930A9202220D920E9382
:100254004FF4E0130F9306A800F04AF980B90F2376
:10026400019302210291002303934FF480620492CC
:10027400059301A800F00AFC20B911B05DF804FB55
:10028400FFF7CEFFFFF7CCFF08B500F0E3F8FFF768
:10029400C9FF00F02BF801F06FF8114D0122202165
:1002A400284600F005FF0F4C00222021204600F0D4
:1002B400FFFE4FF4FA7000F0F1F8002220212846E6
:1002C40000F0F6FE01222021204600F0F1FE4FF45A
:1002D400FA7000F0E3F8412001F0B0F8DDE700BF68
:1002E400000C014000180140704700002DE9F04166
:1002F40088B00023049305930693079303F1804386
:1003040003F504339A6942F040029A619A6902F053
:1003140040020092009A9A6942F010029A619A6926
:1003240002F010020192019A9A6942F004029A6161
:100334009A6902F004020292029A9A6942F008024F
:100344009A619B6903F008030393039BDFF84480DD
:1003540001222021404600F0ABFE0F4D0122202156
:10036400284600F0A5FE202704970124059406944E
:100374000326079604A9404600F0C2FC049705949E
:100384000694079604A9284600F0BAFC08B0BDE814
:10039400F08100BF00180140000C0140FEE7FEE7B9
:1003A400FEE7FEE7FEE770477047704708B500F0C8
:1003B40063F808BD08B5024801F040FB08BD00BF62
:1003C4002C00002082B00E4B9A6942F001029A611F
:1003D4009A6902F001020092009ADA6942F08052AE
:1003E400DA61DB6903F080530193019B054A53688A
:1003F40023F0E06343F08073536002B0704700BFA2
:10040400001002400000014010B504460E4B18785D
:100414004FF47A73B3FBF0F30C4A1068B0FBF3F0BB
:1004240000F094FF68B90F2C01D901200AE00022E2
:1004340021464FF0FF3000F02BFF054B1C600020DD
:1004440000E0012010BD00BF0000002008000020D3
:100454000400002008B5074A136843F01003136032
:10046400032000F0F7FE0F20FFF7CEFFFFF7AAFFEF
:10047400002008BD00200240034A1168034B1B788A
:100484000B441360704700BF2800002000000020C8
:10049400014B1868704700BF2800002038B5044697
:1004A400FFF7F6FF0546B4F1FF3F02D0044B1B787B
:1004B4001C44FFF7EDFF401BA042FAD338BD00BF38
:1004C4000000002082B0084B1B68084AA2FB0323EB
:1004D4005B0A00FB03F3019300BF019B5A1E0192C8
:1004E400002BF9D102B0704708000020D34D6210F0
:1004F400002800F0898270B582B00446036813B105
:1005040013F00F0F2AD0236813F0010F40D0636853
:100514002BB1B3F5803F02D0B3F5A02F24D19C4B6F
:100524005B6803F00C03042B29D0994B5B6803F040
:100534000C03082B1ED06368B3F5803F55D0002B05
:1005440069D103F1804303F504331A6822F480323D
:100554001A601A6822F480221A604BE040F2651196
:100564008C48FFF7C1FECEE740F26B118948FFF7D4
:10057400BBFED4E7864B5B6813F4803FDBD0844B2F
:100584001B6813F4003F03D06368002B00F03E8225
:10059400236813F0020F00F089802369012B63D8CC
:1005A40063691F2B66D87A4B5B6813F00C0F6CD011
:1005B400774B5B6803F00C03082B61D02369002B95
:1005C40000F09A80744B01221A60FFF761FF054620
:1005D4006F4B1B6813F0020F40F08580FFF758FF44
:1005E400401B0228F4D9032015E2694A136843F436
:1005F40080331360636843B3FFF74AFF0546644BD7
:100604001B6813F4003FC3D1FFF742FF401B64286B
:10061400F5D90320FFE1B3F5A02F09D05C4B1A688C
:1006240022F480321A601A6822F480221A60E1E708
:1006340003F18043A3F53C331A6842F480221A6024
:100644001A6842F480321A60D4E7FFF721FF0546A6
:100654004F4B1B6813F4003F9AD0FFF719FF401B60
:100664006428F5D90320D6E140F29F114948FFF7E9
:100674003BFE95E74FF4D0714648FFF735FE92E70D
:10068400434B5B6813F4803F98D1414B1B6813F0D4
:10069400020F03D02369012B40F0BA813C4A13684E
:1006A40023F0F803616943EAC1031360236813F07C
:1006B400080F3CD0A369012B30D8A369002B6FD05D
:1006C400354B0122C3F88024FFF7E2FE0546304B88
:1006D4005B6A13F0020F27D1FFF7DAFE401B0228F2
:1006E400F5D9032097E12A4A136823F0F8036169D6
:1006F40043EAC1031360D9E7274B00221A60FFF7CE
:10070400C7FE0546224B1B6813F0020FCED0FFF73D
:10071400BFFE401B0228F5D903207CE14FF4F071A1
:100724001C48FFF7E1FDC8E70120FFF7CBFE236873
:1007340013F0040F00F0A480E368012B01D9052B0A
:1007440041D1134BDB6913F0805F42D1104BDA695E
:1007540042F08052DA61DB6903F080530193019B1C
:1007640001250E4B1B6813F4807F34D0E368012B02
:1007740045D0002B5BD103F1804303F504331A6A9F
:1007840022F001021A621A6A22F004021A623BE0A1
:1007940000100240681C0008000042420070004043
:1007A400A14B0022C3F88024FFF772FE05469F4B3D
:1007B4005B6A13F0020FBAD0FFF76AFE401B0228EF
:1007C400F5D9032027E140F20F219948FFF78CFD6A
:1007D400B7E70025C5E7974A136843F480731360AD
:1007E400FFF756FE0646934B1B6813F4807FBDD17A
:1007F400FFF74EFE801B6428F5D903200BE18B4ADA
:10080400136A43F001031362E36833B3FFF740FE56
:100814000646864B1B6A13F0020F2FD1FFF738FEF2
:10082400801B41F288339842F3D90320F3E0052B6F
:1008340009D07E4B1A6A22F001021A621A6A22F067
:1008440004021A62E0E7794B1A6A42F004021A625F
:100854001A6A42F001021A62D6E7FFF719FE064649
:10086400724B1B6A13F0020F08D0FFF711FE801BB6
:1008740041F288339842F3D90320CCE0002D53D1C0
:10088400E369022B56D8E369002B00F0C380674A62
:10089400526802F00C02082A00F0A680022B40F0F5
:1008A4008F80236A13B1B3F5803F49D1636A4BB398
:1008B400B3F5802F26D0B3F5002F23D0B3F5402F06
:1008C40020D0B3F5801F1DD0B3F5A01F1AD0B3F507
:1008D400C01F17D0B3F5E01F14D0B3F5001F11D01B
:1008E400B3F5101F0ED0B3F5201F0BD0B3F5301F96
:1008F40008D0B3F5401F05D0B3F5501F02D0B3F5AF
:10090400601F23D1484B00221A66FFF7C1FD05463C
:10091400464B1B6813F0007F1ED0FFF7B9FD401B48
:100924000228F5D9032076E0404AD36923F08053A6
:10093400D361A5E740F2AD213D48FFF7D5FCA2E71E
:1009440040F2B6213A48FFF7CFFCAFE740F2B721B7
:100954003748FFF7C9FCD5E7236AB3F5803F1AD0BF
:1009640032494B6823F47413226A606A02431343C6
:100974004B602D4B01221A66FFF78AFD04462B4B70
:100984001B6813F0007F19D1FFF782FD001B0228BA
:10099400F5D903203FE0A36813B1B3F5003F07D1B5
:1009A400224A536823F40033A1680B435360D7E70A
:1009B40040F2CD211E48FFF797FCF1E700202AE022
:1009C400194B00221A66FFF763FD0446174B1B6898
:1009D40013F0007F06D0FFF75BFD001B0228F5D95A
:1009E400032018E0002016E0012B16D00F4B5B68A3
:1009F40003F48031226A914211D103F47013626AC4
:100A040093420ED1002006E001207047012002E04D
:100A1400012000E0002002B070BD0120FBE70120AE
:100A2400F9E70120F7E700BF00004242001002404E
:100A3400681C0008007000400F4B5B6803F00C0258
:100A4400082A01D00D487047C3F383420C49885CDF
:100A540013F4803F0BD0084B5B68C3F34043094A4F
:100A6400D35C064A02FB00F0B0FBF3F07047064B80
:100A740003FB00F0704700BF0010024000127A0030
:100A8400A01C0008B01C000800093D00002800F06C
:100A9400FC8070B50D460446036813F00F0F6DD04B
:100AA400022D71D87D4B1B6803F00703AB420BD2B8
:100AB4007A4A136823F007032B431360136803F087
:100AC4000703AB4240F0E380236813F0020F29D000
:100AD40013F0040F04D0724A536843F4E063536084
:100AE400236813F0080F04D06D4A536843F460532D
:100AF4005360A3687BB1802B0DD0902B0BD0A02B1F
:100B040009D0B02B07D0C02B05D0D02B03D0E02BBD
:100B140001D0F02B3ED1624A536823F0F003A16860
:100B24000B435360236813F0010F4DD06368022B0D
:100B340036D86368012B39D0022B3ED0584A12684C
:100B440012F0020F00F0A58055494A6822F0030212
:100B540013434B60FFF79CFC0646514B5B6803F064
:100B64000C036268B3EB820F2ED0FFF791FC801B5D
:100B740041F288339842F0D9032079E040F23631CB
:100B84004848FFF7B1FB8BE740F237314548FFF7A0
:100B9400ABFB87E740F25D314248FFF7A5FBBAE7BC
:100BA4004FF459713F48FFF79FFBC2E73C4A126874
:100BB40012F4003FC8D101205AE0394A126812F0F9
:100BC400007FC1D1012053E0344B1B6803F00703BD
:100BD400AB420AD9314A136823F007032B4313604D
:100BE400136803F00703AB4255D1236813F0040FD5
:100BF40014D0E3685BB1B3F5806F08D0B3F5A06F90
:100C040005D0B3F5C06F02D0B3F5E06F31D1244AFB
:100C1400536823F4E063E1680B435360236813F0E3
:100C2400080F15D023695BB1B3F5806F08D0B3F515
:100C3400A06F05D0B3F5C06F02D0B3F5E06F1ED13D
:100C4400174A536823F46053216943EAC10353608C
:100C5400FFF7F2FE124B5B68C3F30313124AD35C33
:100C6400D840124B1860124B1868FFF7CDFB0020D8
:100C740070BD40F2A2310B48FFF736FBC7E740F2E4
:100C8400A9310848FFF730FBDAE70120704701205B
:100C9400EEE70120ECE70120EAE700BF0020024074
:100CA40000100240681C0008241D000808000020F1
:100CB40004000020014B1868704700BF08000020A2
:100CC40008B5FFF7F7FF044B5B68C3F30223034A3D
:100CD400D35CD84008BD00BF00100240341D00089A
:100CE40008B5FFF7E7FF044B5B68C3F3C223034A6D
:100CF400D35CD84008BD00BF00100240341D00087A
:100D04002DE9F04383B007460E46884B98421BD02A
:100D140003F58063984217D003F58063984213D09B
:100D240003F5806398420FD003F5806398420BD09B
:100D340003F58063984207D003F58063984203D09B
:100D4400BD217B48FFF7D0FA33689AB212B11B0C6D
:100D54001B041BB1BE217648FFF7C6FA7368012B4A
:100D64001ED9112B1CD0022B1AD0122B18D0714A69
:100D7400934215D002F58012934211D002F58012ED
:100D840093420DD0A2F5F812934209D002F58012D5
:100D9400934205D002F58012934201D0032B03D174
:100DA4004FF000094D46FDE0BF216148FFF79CFA72
:100DB400F6E7614A934210D007D9604A93420CD0B7
:100DC40002F58032934208D01AE0A2F580129342D1
:100DD40003D002F5702293420ED1B368022B00F2C5
:100DE4008D80B368002B00F09580012B00F08B8080
:100DF4007C614FF0080903E0A2F580129342ECD025
:100E0400B8F1FF0F00F289803846B8F1FF0F00F205
:100E14008680AA0003680F21914023EA010309FA9E
:100E240002F213430360736813F0805F00F0B9802B
:100E3400434B9A6942F001029A619B6903F00103F2
:100E44000193019BAA08911C3E4B53F8210005F025
:100E5400030399000F238B4020EA0300334B9F4286
:100E640072D003F580639F4200F0F68003F580633F
:100E74009F4200F0F38003F580639F4200F0F0800E
:100E840003F580639F4200F0ED8003F580639F4289
:100E940049D0062359E0F368013B022B02D8D6F867
:100EA4000C90ADE7D5212248FFF71EFAF7E7F36867
:100EB400013B022B03D8F36803F10409A0E7DC210A
:100EC4001B48FFF711FAF6E7F368013B022B03D83E
:100ED400F36803F1080993E7E3211548FFF704FADF
:100EE400F6E7F368013B022B03D8F36803F10C091E
:100EF40086E7EA210E48FFF7F7F9F6E7F7210C48F1
:100F0400FFF7F2F96DE73C614FF0080978E74FF01D
:100F1400000975E74FF0040972E7381D75E7A5F17C
:100F24000802920076E705230FE000BF00080140A5
:100F3400B41C000800001110000022100000311041
:100F4400001002400000014000238B4003430232A2
:100F5400534941F82230736813F4801F00F08480F1
:100F6400504A936843EA08039360736813F4001FBC
:100F740000F080804B4AD36843EA0803D360736867
:100F840013F4003F7CD0474A536843EA0803536094
:100F9400736813F4803F79D0424A136843EA080324
:100FA40013600135336833FA05F275D00124AC407F
:100FB40003EA040834EA0303F3D13B4B9F421BD0FA
:100FC40003F580639F4217D003F580639F4213D0DB
:100FD40003F580639F420FD003F580639F420BD0DB
:100FE40003F580639F4207D003F580639F4203D0DB
:100FF400CD212E48FFF778F97368122B3FF6D9AE4E
:10100400122B3FF6FDAE01A252F823F0DF0D0008CB
:101014009B0E0008CD0E0008130F0008050E0008F3
:10102400050E0008050E0008050E0008050E000850
:10103400050E0008050E0008050E0008050E000840
:10104400050E0008050E0008050E0008050E000830
:10105400B30E0008E70E0008012376E7022374E7C5
:10106400032372E7042370E70E4A936823EA080314
:1010740093607AE70B4AD36823EA0803D3607EE7D8
:10108400084A536823EA0803536081E7054A136852
:1010940023EA0803136084E703B0BDE8F08300BFCC
:1010A400000001400004014000080140B41C000895
:1010B40070B5054614460E4621B1012C08D86CB112
:1010C4002E6170BD4FF4EA710648FFF70DF9F4E79D
:1010D40040F2D5110348FFF707F9F0E736042E6113
:1010E400EFE700BFB41C000808B590F82130DBB26C
:1010F400022B03D004238363012008BD0268136814
:1011040023F00E0313600268136823F001031360D5
:1011140003684C4A93424ED9783A934224D014320D
:10112400934230D0143293422FD0143293422FD0B2
:10113400143293422FD0143293422FD0143293425C
:101144002FD002F5627293422ED0143293422DD0E6
:10115400143293422CD01432934202D04FF4803292
:1011640003E04FF4805200E00122374B5A60012320
:1011740080F82130002380F82030436B002B5ED0B0
:1011840098470020B9E71022EFE74FF48072ECE7AC
:101194004FF48052E9E74FF48032E6E74FF48012CF
:1011A400E3E74FF08072E0E70122DEE71022DCE79C
:1011B4004FF48072D9E7254A934224D014329342E3
:1011C40025D01432934224D01432934224D01432C2
:1011D400934224D01432934224D01432934224D024
:1011E40002F56272934223D01432934222D0143215
:1011F400934221D01432934202D04FF4803203E060
:101204004FF4805200E00122114B5A60AFE71022E4
:10121400FAE74FF48072F7E74FF48052F4E74FF4A3
:101224008032F1E74FF48012EEE74FF08072EBE783
:101234000122E9E71022E7E74FF48072E4E7002097
:101244005BE700BF80000240000402400800024047
:101254000000024010B50446C31E042B0FD80A4AEE
:10126400D36823F4E0631B041B0C240204F4E0643D
:10127400234343F0BF6343F40033D36010BD912193
:101284000248FFF731F8EAE700ED00E0EC1C000843
:1012940070B505460C4616460F2A25D80F2C28D8BB
:1012A4001B4BDB68C3F30223C3F10701042928BFE6
:1012B40004211A1D062A21D9033B4FF0FF3202FAFA
:1012C40001F124EA01049C4002FA03F326EA03062E
:1012D4003443002D14DB2401E4B205F1604505F527
:1012E400614585F8004370BDA9210A48FEF7FCFF5B
:1012F400D4E7AA210748FEF7F7FFD1E70023DCE78C
:1013040005F00F052401E4B2034B5C55EBE700BF85
:1013140000ED00E0EC1C000814ED00E010B5041E24
:101324000ADB002C07DB04F01F026409012393404D
:10133400044A42F8243010BDBD210348FEF7D4FF0F
:10134400EFE700BF00E100E0EC1C00080138B0F159
:10135400807F0BD24FF0E0235861054AF02182F8D8
:1013640023100020986107221A61704701207047FA
:1013740000ED00E07047000008B50C480C4B03601A
:101384004FF4E133436000238360C36003610C22A4
:1013940042614FF480628261C361036200F0C2F96A
:1013A40000B908BDFEF73CFFFBE700BF2C0000209E
:1013B4000038014030B587B00023029303930493AF
:1013C400059302681B4B9A4201D007B030BD03F568
:1013D40058439A6942F480429A619A6902F48042BD
:1013E4000092009A9A6942F004029A619B6903F0A0
:1013F40004030193019B4FF440730293022303936C
:10140400032305930C4D02A92846FFF779FC4FF4FA
:101414008063029300240394049402A92846FFF7EE
:101424006FFC224621462520FFF732FF2520FFF7D7
:1014340075FFCAE7003801400008014000B583B0D9
:101444008DF807004FF4FA6301220DF107010348F8
:1014540000F0A8F903B05DF804FB00BF2C000020E5
:101464000268D36823F49073D3600268536923F04D
:1014740001035361012380F83D30704790F83D30FB
:10148400DBB2122B01D0022070478368B3F5805F72
:1014940017D0436A5A1C42621A7803685A60438D13
:1014A4009BB2013B9BB243854BB90268D36823F0DE
:1014B4008003D3600268D36843F04003D360002004
:1014C40070470369002BE4D1436A1B880268C3F3A5
:1014D40008035360436A02334362E0E738B50446C5
:1014E40003686D4A93420CD0A2F57442934208D02B
:1014F40002F58062934204D04FF42B616748FEF7F3
:10150400F3FEA36913B1B3F5806F7AD1E36913B124
:10151400B3F5007F7BD1236A13B1B3F5807F7CD10F
:1015240062685F4B9A427ED8A36813B1B3F5805FBB
:101534007FD1E36843B1B3F5805F05D0B3F5405F75
:1015440002D0B3F5005F7AD123692BB1B3F5806F74
:1015540002D0B3F5C06F78D1636933F00C0200D1C7
:1015640023B940F6B8214D48FEF7BEFE2268D36881
:1015740023F00C03D36021680A6922F47C52A36926
:10158400E0690343206A0343E0680343134343F4DD
:1015940000630B612168CA6822F4B05222F00C0285
:1015A400A36820690343606903431343CB60226843
:1015B400536923F4407353612268374B9A424AD0EB
:1015C400FFF77EFB00EB800000EB800063689B006C
:1015D400B0FBF3F0334DA5FB00325109642303FB48
:1015E40011031B013233A5FB03235B095A0002F4E8
:1015F400F07202EB011203F00F03216813448B60B5
:1016040038BD40F6B1212548FEF76EFE7EE740F670
:10161400B2212248FEF768FE7DE740F6B3211F4859
:10162400FEF762FE7CE740F6B4211C48FEF75CFE40
:101634007AE740F6B5211948FEF756FE79E740F6F9
:10164400B6211648FEF750FE7EE740F6B721134850
:10165400FEF74AFE80E7FFF743FB00EB800000EB58
:10166400800063689B00B0FBF3F00E4DA5FB0032D5
:101674005109642303FB11031B013233A5FB03232C
:101684005B095A0002F4F07202EB011203F00F033B
:10169400216813448B60B3E7003801403C1D000807
:1016A40020AA44001F85EB512DE9F84305460F4657
:1016B40016469946DDF820802C68246837EA04032E
:1016C4000CBF4FF0010C4FF0000CB44527D1B8F11A
:1016D400FF3FF1D0B8F1000F05D0FEF7D9FEA0EB23
:1016E40009004045E8D92A68D36823F08003D36011
:1016F4002A68D36823F02003D3602A68D36823F4CC
:101704008073D3602A68536923F001035361012372
:1017140085F83D30002385F83C30032000E00020AC
:10172400BDE8F883002836D010B5044603681B4A88
:1017340093420CD0A2F57442934208D002F5806221
:10174400934204D04FF499711548FEF7CDFD94F8F7
:101754003D30D3B1022384F83D302046FFF7BEFE6E
:101764002268136923F4804313612268536923F0C8
:101774002A0353612268D36843F40053D3600020E2
:101784002064012384F83D3010BD84F83C302046A9
:10179400FFF710FEDEE70120704700BF003801406C
:1017A4003C1D00082DE9F04182B0044690F83D004C
:1017B400C0B2012854D10D4690461E46002950D08F
:1017C400002A4ED094F83C30012B4DD0012384F8EC
:1017D4003C3000232364122384F83D30FEF758FE86
:1017E4000746A4F82880A4F82A80A368B3F5805F8C
:1017F40002D04FF000080FE02369FBB14FF000085E
:101804000AE038F8023B2268C3F308035360628D90
:1018140092B2013A92B26285638D9BB28BB100960B
:101824003B46002280212046FFF73EFFF0B9002D01
:10183400E7D015F8012B23685A60E8E7A84600258D
:10184400EAE700963B46002240212046FFF72CFFA2
:1018540070B9012384F83D30002384F83C3000E063
:10186400022002B0BDE8F0810220FAE70320F8E785
:101874000320F6E7704708B50168CA6822F0400201
:10188400CA6001684A6922F001024A61012280F8B3
:101894003D20FFF7EFFF002008BD704708B590F822
:1018A4003D30DBB2222B46D18368B3F5805F19D07B
:1018B400C26AB3F5805F02D00BBB0369FBB903684E
:1018C4005B681370C36A0133C362438E9BB2013BEE
:1018D4009BB24386438E9BB2BBB10368FF225A601E
:1018E400002008BD0269002AE2D1C26A03685B686D
:1018F400C3F308031380C36A0233C362E5E70368D2
:101904005B6803F07F031370DCE70268D36823F09D
:101914002003D3600268D36823F48073D360026821
:10192400536923F001035361012380F83D30FFF72D
:10193400B4FF0020D5E70220D3E7704708B590F83C
:101944003D30DBB2322B75D1438D9BB2D3B10368EA
:101954001A6812F0800F15D08268B2F5805F35D016
:10196400426A511C416212785A60438D9BB2013B1A
:101974009BB24385438D9BB223B90268D36823F09D
:101984008003D360438E9BB2DBB103681A6812F004
:10199400200F16D08268B2F5805F23D0B2F5805F45
:1019A40004D0002A2AD10269002A27D15A68C36ABE
:1019B4001A70C36A0133C362438E9BB2013B9BB26C
:1019C4004386438E9BB2FBB1002008BD0269002A06
:1019D400C6D1426A1288C2F308025A60436A0233CB
:1019E4004362C2E701690029D8D1C26A5B68C3F3C4
:1019F40008031380C36A0233C362DDE75B68C26A0B
:101A040003F07F031370D4E70268D36823F0200344
:101A1400D3600268D36823F48073D3600268536987
:101A240023F001035361012380F83D30FFF785FF64
:101A34000020CAE70220C8E77047000010B504463A
:101A440002681368D168526913F00F0005D113F0CE
:101A5400200F02D011F0200F14D128B112F001028E
:101A64001DD111F4907F1AD113F0800F02D011F020
:101A7400800F7ED113F0400F03D011F0400F40F0DF
:101A8400858010BD94F83D30DBB2222B03D0204674
:101A9400FFF754FFF5E72046FFF700FFF1E713F0E7
:101AA400010F06D011F4807F03D0206C40F00100B8
:101AB400206413F0040F04D01AB1206C40F002002B
:101AC400206413F0020F04D01AB1206C40F004001B
:101AD400206413F0080F07D011F0200F00D11AB1C1
:101AE400226C42F008022264226C002AC9D013F04E
:101AF400200F0AD011F0200F07D094F83D30DBB24C
:101B0400222B24D02046FFF719FF23685B6903F0DA
:101B14004003226C12F0080F00D123B32046FFF7D4
:101B24009FFC23685A6912F0400F18D05A6922F0BA
:101B340040025A61A36B73B1164A5A63A06BFFF754
:101B4400D3FA00289DD0A06B436B984799E72046B1
:101B5400FFF7A4FED9E72046FFF76EFF91E7204682
:101B6400FFF76AFF8DE72046FFF766FF0023236433
:101B740087E794F83D30DBB2122B03D02046FFF701
:101B8400DDFE7EE72046FFF779FC7AE72046FFF783
:101B940072FE76E79D1B000808B5406A0023438661
:101BA4004385FFF749FF08BDFFF7E4FB0B480C49E9
:101BB4000C4A002302E0D458C4500433C4188C42A5
:101BC400F9D3094A094C002301E013600432A2420C
:101BD400FBD300F00FF8FEF757FB7047000000201E
:101BE4000C0000207C1D00080C0000207000002068
:101BF400FEE7000070B500260C4D0D4C641BA410CC
:101C0400A64209D100F022F800260A4D0A4C641BB2
:101C1400A410A64205D170BD55F8043B984701367F
:101C2400EEE755F8043B98470136F2E7741D0008C7
:101C3400741D0008741D0008781D00080346024442
:101C4400934200D1704703F8011BF9E7F8B500BFD0
:101C5400F8BC08BC9E467047F8B500BFF8BC08BC89
:041C64009E467047E1
:101C6800447269766572732F53544D333246317816
:101C7800785F48414C5F4472697665722F5372638E
:101C88002F73746D3332663178785F68616C5F7278
:101C980063632E63000000000203040506070809B9
:101CA8000A0B0C0D0E0F1010010200004472697629
:101CB8006572732F53544D3332463178785F4841FB
:101CC8004C5F4472697665722F5372632F73746D1B
:101CD8003332663178785F68616C5F6770696F2E40
:101CE80063000000447269766572732F53544D3354
:101CF80032463178785F48414C5F44726976657244
:101D08002F5372632F73746D3332663178785F683E
:101D1800616C5F636F727465782E63000000000069
:101D28000000000001020304060708090000000083
:101D380001020304447269766572732F53544D335C
:101D480032463178785F48414C5F447269766572F3
:101D58002F5372632F73746D3332663178785F68EE
:0C1D6800616C5F75736172742E63000083
:041D74000902000858
:041D7800E501000879
:0C1D7C0001000000100000000024F40032
:0400000508001BAD27
:00000001FF
